:100000000C9434000C943E000C943E000C943E0082
:100010000C943E000C943E000C943E000C943E0068
:100020000C943E000C943E000C943E000C943E0058
:100030000C943E000C943E000C943E000C943E0048
:100040000C943E000C943E000C943E000C943E0038
:100050000C943E000C943E000C943E000C943E0028
:100060000C943E000C943E0011241FBECFEFD8E04C
:10007000DEBFCDBF0E9464010C9493010C9400007C
:100080009BB19F70282F207F922B9BB95A985B9A27
:10009000EFE9FFE03197F1F700C000005B98EFE96E
:1000A000FFE03197F1F700C000002BB12F70F0E1B5
:1000B0008F9FC0011124822B8BB95B9A8FE99FE03F
:1000C0000197F1F700C000005B98EFE9FFE031977E
:1000D000F1F700C0000008959BB19F70282F207F8A
:1000E000922B9BB95A9A5B9AEFE3FFE13197F1F7B4
:1000F00000C000005B98EFE3FFE13197F1F700C02B
:1001000000002BB12F70F0E18F9FC0011124822BD2
:100110008BB95B9A3AE03A95F1F700C05B988AE0B8
:100120008A95F1F700C008958AB18C6F8AB98BB1B6
:100130005D9A5A985B9A8FE99FE00197F1F700C0AA
:1001400000005B9888E20E9440008FE99FE00197E1
:10015000F1F700C000008EE00E9440008FE99FE0B0
:100160000197F1F700C0000080E80C94400081E0A6
:100170000E9440008FE19EE40197F1F700C000006B
:10018000089520E4829FC00111248068860F0E9498
:10019000400087EC90E00197F1F700C0000008955F
:1001A000CF93DF93EC018991882319F00E946C00B2
:1001B000FACFDF91CF910895805D0C946C00AF92DF
:1001C000BF92CF92DF92EF92FF920F931F93CF9344
:1001D000DF93EC0180E1C82E87E2D82E98EEA92E9D
:1001E00093E0B92E24E6E22EF12CD7FF06C08DE273
:1001F0000E946C00D195C195D109C03127E2D20788
:10020000C4F0CE01B6010E946B018C01862F0E94C2
:10021000DC00083E83E018074CF480E30E946C0089
:10022000043611051CF480E30E946C00C8010E9492
:10023000DF00CE01885E93408832934288F4CE017D
:10024000B5010E946B018C01862F0E94DC000436F0
:1002500011051CF480E30E946C00C8010E94DF00BD
:10026000CE01845691098438934050F4CE01B701F1
:100270000E946B018C01862F0E94DC00E801B5CF43
:10028000C436D105B4F4CE016AE070E00E946B017F
:10029000C82F862F0E94DC008C2FDF91CF911F91F9
:1002A0000F91FF90EF90DF90CF90BF90AF900C94A4
:1002B000DC00DF91CF911F910F91FF90EF90DF90C5
:1002C000CF90BF90AF9008950E94940088ED97E280
:1002D0000E94DF00FFCF97FB072E16F4009407D093
:1002E00077FD09D00E947F0107FC05D03EF4909570
:1002F00081959F4F0895709561957F4F0895AA1B32
:10030000BB1B51E107C0AA1FBB1FA617B70710F000
:10031000A61BB70B881F991F5A95A9F78095909532
:0A032000BC01CD010895F894FFCF51
:00000001FF
